{
  "_format": "hh-sol-artifact-1",
  "contractName": "MyGovernor",
  "sourceName": "contracts/MyGovernor.sol",
  "abi": [
    {
      "inputs": [
        {
          "internalType": "contract IVotes",
          "name": "_token",
          "type": "address"
        }
      ],
      "stateMutability": "nonpayable",
      "type": "constructor"
    },
    {
      "inputs": [],
      "name": "CheckpointUnorderedInsertion",
      "type": "error"
    },
    {
      "inputs": [],
      "name": "FailedInnerCall",
      "type": "error"
    },
    {
      "inputs": [
        {
          "internalType": "address",
          "name": "voter",
          "type": "address"
        }
      ],
      "name": "GovernorAlreadyCastVote",
      "type": "error"
    },
    {
      "inputs": [
        {
          "internalType": "uint256",
          "name": "proposalId",
          "type": "uint256"
        }
      ],
      "name": "GovernorAlreadyQueuedProposal",
      "type": "error"
    },
    {
      "inputs": [],
      "name": "GovernorDisabledDeposit",
      "type": "error"
    },
    {
      "inputs": [
        {
          "internalType": "address",
          "name": "proposer",
          "type": "address"
        },
        {
          "internalType": "uint256",
          "name": "votes",
          "type": "uint256"
        },
        {
          "internalType": "uint256",
          "name": "threshold",
          "type": "uint256"
        }
      ],
      "name": "GovernorInsufficientProposerVotes",
      "type": "error"
    },
    {
      "inputs": [
        {
          "internalType": "uint256",
          "name": "targets",
          "type": "uint256"
        },
        {
          "internalType": "uint256",
          "name": "calldatas",
          "type": "uint256"
        },
        {
          "internalType": "uint256",
          "name": "values",
          "type": "uint256"
        }
      ],
      "name": "GovernorInvalidProposalLength",
      "type": "error"
    },
    {
      "inputs": [
        {
          "internalType": "uint256",
          "name": "quorumNumerator",
          "type": "uint256"
        },
        {
          "internalType": "uint256",
          "name": "quorumDenominator",
          "type": "uint256"
        }
      ],
      "name": "GovernorInvalidQuorumFraction",
      "type": "error"
    },
    {
      "inputs": [
        {
          "internalType": "address",
          "name": "voter",
          "type": "address"
        }
      ],
      "name": "GovernorInvalidSignature",
      "type": "error"
    },
    {
      "inputs": [],
      "name": "GovernorInvalidVoteType",
      "type": "error"
    },
    {
      "inputs": [
        {
          "internalType": "uint256",
          "name": "votingPeriod",
          "type": "uint256"
        }
      ],
      "name": "GovernorInvalidVotingPeriod",
      "type": "error"
    },
    {
      "inputs": [
        {
          "internalType": "uint256",
          "name": "proposalId",
          "type": "uint256"
        }
      ],
      "name": "GovernorNonexistentProposal",
      "type": "error"
    },
    {
      "inputs": [
        {
          "internalType": "uint256",
          "name": "proposalId",
          "type": "uint256"
        }
      ],
      "name": "GovernorNotQueuedProposal",
      "type": "error"
    },
    {
      "inputs": [
        {
          "internalType": "address",
          "name": "account",
          "type": "address"
        }
      ],
      "name": "GovernorOnlyExecutor",
      "type": "error"
    },
    {
      "inputs": [
        {
          "internalType": "address",
          "name": "account",
          "type": "address"
        }
      ],
      "name": "GovernorOnlyProposer",
      "type": "error"
    },
    {
      "inputs": [],
      "name": "GovernorQueueNotImplemented",
      "type": "error"
    },
    {
      "inputs": [
        {
          "internalType": "address",
          "name": "proposer",
          "type": "address"
        }
      ],
      "name": "GovernorRestrictedProposer",
      "type": "error"
    },
    {
      "inputs": [
        {
          "internalType": "uint256",
          "name": "proposalId",
          "type": "uint256"
        },
        {
          "internalType": "enum IGovernor.ProposalState",
          "name": "current",
          "type": "uint8"
        },
        {
          "internalType": "bytes32",
          "name": "expectedStates",
          "type": "bytes32"
        }
      ],
      "name": "GovernorUnexpectedProposalState",
      "type": "error"
    },
    {
      "inputs": [
        {
          "internalType": "address",
          "name": "account",
          "type": "address"
        },
        {
          "internalType": "uint256",
          "name": "currentNonce",
          "type": "uint256"
        }
      ],
      "name": "InvalidAccountNonce",
      "type": "error"
    },
    {
      "inputs": [],
      "name": "InvalidShortString",
      "type": "error"
    },
    {
      "inputs": [],
      "name": "QueueEmpty",
      "type": "error"
    },
    {
      "inputs": [],
      "name": "QueueFull",
      "type": "error"
    },
    {
      "inputs": [
        {
          "internalType": "uint8",
          "name": "bits",
          "type": "uint8"
        },
        {
          "internalType": "uint256",
          "name": "value",
          "type": "uint256"
        }
      ],
      "name": "SafeCastOverflowedUintDowncast",
      "type": "error"
    },
    {
      "inputs": [
        {
          "internalType": "string",
          "name": "str",
          "type": "string"
        }
      ],
      "name": "StringTooLong",
      "type": "error"
    },
    {
      "anonymous": false,
      "inputs": [],
      "name": "EIP712DomainChanged",
      "type": "event"
    },
    {
      "anonymous": false,
      "inputs": [
        {
          "indexed": false,
          "internalType": "uint256",
          "name": "proposalId",
          "type": "uint256"
        }
      ],
      "name": "ProposalCanceled",
      "type": "event"
    },
    {
      "anonymous": false,
      "inputs": [
        {
          "indexed": false,
          "internalType": "uint256",
          "name": "proposalId",
          "type": "uint256"
        },
        {
          "indexed": false,
          "internalType": "address",
          "name": "proposer",
          "type": "address"
        },
        {
          "indexed": false,
          "internalType": "address[]",
          "name": "targets",
          "type": "address[]"
        },
        {
          "indexed": false,
          "internalType": "uint256[]",
          "name": "values",
          "type": "uint256[]"
        },
        {
          "indexed": false,
          "internalType": "string[]",
          "name": "signatures",
          "type": "string[]"
        },
        {
          "indexed": false,
          "internalType": "bytes[]",
          "name": "calldatas",
          "type": "bytes[]"
        },
        {
          "indexed": false,
          "internalType": "uint256",
          "name": "voteStart",
          "type": "uint256"
        },
        {
          "indexed": false,
          "internalType": "uint256",
          "name": "voteEnd",
          "type": "uint256"
        },
        {
          "indexed": false,
          "internalType": "string",
          "name": "description",
          "type": "string"
        }
      ],
      "name": "ProposalCreated",
      "type": "event"
    },
    {
      "anonymous": false,
      "inputs": [
        {
          "indexed": false,
          "internalType": "uint256",
          "name": "proposalId",
          "type": "uint256"
        }
      ],
      "name": "ProposalExecuted",
      "type": "event"
    },
    {
      "anonymous": false,
      "inputs": [
        {
          "indexed": false,
          "internalType": "uint256",
          "name": "proposalId",
          "type": "uint256"
        },
        {
          "indexed": false,
          "internalType": "uint256",
          "name": "etaSeconds",
          "type": "uint256"
        }
      ],
      "name": "ProposalQueued",
      "type": "event"
    },
    {
      "anonymous": false,
      "inputs": [
        {
          "indexed": false,
          "internalType": "uint256",
          "name": "oldQuorumNumerator",
          "type": "uint256"
        },
        {
          "indexed": false,
          "internalType": "uint256",
          "name": "newQuorumNumerator",
          "type": "uint256"
        }
      ],
      "name": "QuorumNumeratorUpdated",
      "type": "event"
    },
    {
      "anonymous": false,
      "inputs": [
        {
          "indexed": true,
          "internalType": "address",
          "name": "voter",
          "type": "address"
        },
        {
          "indexed": false,
          "internalType": "uint256",
          "name": "proposalId",
          "type": "uint256"
        },
        {
          "indexed": false,
          "internalType": "uint8",
          "name": "support",
          "type": "uint8"
        },
        {
          "indexed": false,
          "internalType": "uint256",
          "name": "weight",
          "type": "uint256"
        },
        {
          "indexed": false,
          "internalType": "string",
          "name": "reason",
          "type": "string"
        }
      ],
      "name": "VoteCast",
      "type": "event"
    },
    {
      "anonymous": false,
      "inputs": [
        {
          "indexed": true,
          "internalType": "address",
          "name": "voter",
          "type": "address"
        },
        {
          "indexed": false,
          "internalType": "uint256",
          "name": "proposalId",
          "type": "uint256"
        },
        {
          "indexed": false,
          "internalType": "uint8",
          "name": "support",
          "type": "uint8"
        },
        {
          "indexed": false,
          "internalType": "uint256",
          "name": "weight",
          "type": "uint256"
        },
        {
          "indexed": false,
          "internalType": "string",
          "name": "reason",
          "type": "string"
        },
        {
          "indexed": false,
          "internalType": "bytes",
          "name": "params",
          "type": "bytes"
        }
      ],
      "name": "VoteCastWithParams",
      "type": "event"
    },
    {
      "inputs": [],
      "name": "BALLOT_TYPEHASH",
      "outputs": [
        {
          "internalType": "bytes32",
          "name": "",
          "type": "bytes32"
        }
      ],
      "stateMutability": "view",
      "type": "function"
    },
    {
      "inputs": [],
      "name": "CLOCK_MODE",
      "outputs": [
        {
          "internalType": "string",
          "name": "",
          "type": "string"
        }
      ],
      "stateMutability": "view",
      "type": "function"
    },
    {
      "inputs": [],
      "name": "COUNTING_MODE",
      "outputs": [
        {
          "internalType": "string",
          "name": "",
          "type": "string"
        }
      ],
      "stateMutability": "pure",
      "type": "function"
    },
    {
      "inputs": [],
      "name": "EXTENDED_BALLOT_TYPEHASH",
      "outputs": [
        {
          "internalType": "bytes32",
          "name": "",
          "type": "bytes32"
        }
      ],
      "stateMutability": "view",
      "type": "function"
    },
    {
      "inputs": [
        {
          "internalType": "address[]",
          "name": "targets",
          "type": "address[]"
        },
        {
          "internalType": "uint256[]",
          "name": "values",
          "type": "uint256[]"
        },
        {
          "internalType": "bytes[]",
          "name": "calldatas",
          "type": "bytes[]"
        },
        {
          "internalType": "bytes32",
          "name": "descriptionHash",
          "type": "bytes32"
        }
      ],
      "name": "cancel",
      "outputs": [
        {
          "internalType": "uint256",
          "name": "",
          "type": "uint256"
        }
      ],
      "stateMutability": "nonpayable",
      "type": "function"
    },
    {
      "inputs": [
        {
          "internalType": "uint256",
          "name": "proposalId",
          "type": "uint256"
        },
        {
          "internalType": "uint8",
          "name": "support",
          "type": "uint8"
        }
      ],
      "name": "castVote",
      "outputs": [
        {
          "internalType": "uint256",
          "name": "",
          "type": "uint256"
        }
      ],
      "stateMutability": "nonpayable",
      "type": "function"
    },
    {
      "inputs": [
        {
          "internalType": "uint256",
          "name": "proposalId",
          "type": "uint256"
        },
        {
          "internalType": "uint8",
          "name": "support",
          "type": "uint8"
        },
        {
          "internalType": "address",
          "name": "voter",
          "type": "address"
        },
        {
          "internalType": "bytes",
          "name": "signature",
          "type": "bytes"
        }
      ],
      "name": "castVoteBySig",
      "outputs": [
        {
          "internalType": "uint256",
          "name": "",
          "type": "uint256"
        }
      ],
      "stateMutability": "nonpayable",
      "type": "function"
    },
    {
      "inputs": [
        {
          "internalType": "uint256",
          "name": "proposalId",
          "type": "uint256"
        },
        {
          "internalType": "uint8",
          "name": "support",
          "type": "uint8"
        },
        {
          "internalType": "string",
          "name": "reason",
          "type": "string"
        }
      ],
      "name": "castVoteWithReason",
      "outputs": [
        {
          "internalType": "uint256",
          "name": "",
          "type": "uint256"
        }
      ],
      "stateMutability": "nonpayable",
      "type": "function"
    },
    {
      "inputs": [
        {
          "internalType": "uint256",
          "name": "proposalId",
          "type": "uint256"
        },
        {
          "internalType": "uint8",
          "name": "support",
          "type": "uint8"
        },
        {
          "internalType": "string",
          "name": "reason",
          "type": "string"
        },
        {
          "internalType": "bytes",
          "name": "params",
          "type": "bytes"
        }
      ],
      "name": "castVoteWithReasonAndParams",
      "outputs": [
        {
          "internalType": "uint256",
          "name": "",
          "type": "uint256"
        }
      ],
      "stateMutability": "nonpayable",
      "type": "function"
    },
    {
      "inputs": [
        {
          "internalType": "uint256",
          "name": "proposalId",
          "type": "uint256"
        },
        {
          "internalType": "uint8",
          "name": "support",
          "type": "uint8"
        },
        {
          "internalType": "address",
          "name": "voter",
          "type": "address"
        },
        {
          "internalType": "string",
          "name": "reason",
          "type": "string"
        },
        {
          "internalType": "bytes",
          "name": "params",
          "type": "bytes"
        },
        {
          "internalType": "bytes",
          "name": "signature",
          "type": "bytes"
        }
      ],
      "name": "castVoteWithReasonAndParamsBySig",
      "outputs": [
        {
          "internalType": "uint256",
          "name": "",
          "type": "uint256"
        }
      ],
      "stateMutability": "nonpayable",
      "type": "function"
    },
    {
      "inputs": [],
      "name": "clock",
      "outputs": [
        {
          "internalType": "uint48",
          "name": "",
          "type": "uint48"
        }
      ],
      "stateMutability": "view",
      "type": "function"
    },
    {
      "inputs": [],
      "name": "eip712Domain",
      "outputs": [
        {
          "internalType": "bytes1",
          "name": "fields",
          "type": "bytes1"
        },
        {
          "internalType": "string",
          "name": "name",
          "type": "string"
        },
        {
          "internalType": "string",
          "name": "version",
          "type": "string"
        },
        {
          "internalType": "uint256",
          "name": "chainId",
          "type": "uint256"
        },
        {
          "internalType": "address",
          "name": "verifyingContract",
          "type": "address"
        },
        {
          "internalType": "bytes32",
          "name": "salt",
          "type": "bytes32"
        },
        {
          "internalType": "uint256[]",
          "name": "extensions",
          "type": "uint256[]"
        }
      ],
      "stateMutability": "view",
      "type": "function"
    },
    {
      "inputs": [
        {
          "internalType": "address[]",
          "name": "targets",
          "type": "address[]"
        },
        {
          "internalType": "uint256[]",
          "name": "values",
          "type": "uint256[]"
        },
        {
          "internalType": "bytes[]",
          "name": "calldatas",
          "type": "bytes[]"
        },
        {
          "internalType": "bytes32",
          "name": "descriptionHash",
          "type": "bytes32"
        }
      ],
      "name": "execute",
      "outputs": [
        {
          "internalType": "uint256",
          "name": "",
          "type": "uint256"
        }
      ],
      "stateMutability": "payable",
      "type": "function"
    },
    {
      "inputs": [
        {
          "internalType": "address",
          "name": "account",
          "type": "address"
        },
        {
          "internalType": "uint256",
          "name": "timepoint",
          "type": "uint256"
        }
      ],
      "name": "getVotes",
      "outputs": [
        {
          "internalType": "uint256",
          "name": "",
          "type": "uint256"
        }
      ],
      "stateMutability": "view",
      "type": "function"
    },
    {
      "inputs": [
        {
          "internalType": "address",
          "name": "account",
          "type": "address"
        },
        {
          "internalType": "uint256",
          "name": "timepoint",
          "type": "uint256"
        },
        {
          "internalType": "bytes",
          "name": "params",
          "type": "bytes"
        }
      ],
      "name": "getVotesWithParams",
      "outputs": [
        {
          "internalType": "uint256",
          "name": "",
          "type": "uint256"
        }
      ],
      "stateMutability": "view",
      "type": "function"
    },
    {
      "inputs": [
        {
          "internalType": "uint256",
          "name": "proposalId",
          "type": "uint256"
        },
        {
          "internalType": "address",
          "name": "account",
          "type": "address"
        }
      ],
      "name": "hasVoted",
      "outputs": [
        {
          "internalType": "bool",
          "name": "",
          "type": "bool"
        }
      ],
      "stateMutability": "view",
      "type": "function"
    },
    {
      "inputs": [
        {
          "internalType": "address[]",
          "name": "targets",
          "type": "address[]"
        },
        {
          "internalType": "uint256[]",
          "name": "values",
          "type": "uint256[]"
        },
        {
          "internalType": "bytes[]",
          "name": "calldatas",
          "type": "bytes[]"
        },
        {
          "internalType": "bytes32",
          "name": "descriptionHash",
          "type": "bytes32"
        }
      ],
      "name": "hashProposal",
      "outputs": [
        {
          "internalType": "uint256",
          "name": "",
          "type": "uint256"
        }
      ],
      "stateMutability": "pure",
      "type": "function"
    },
    {
      "inputs": [],
      "name": "name",
      "outputs": [
        {
          "internalType": "string",
          "name": "",
          "type": "string"
        }
      ],
      "stateMutability": "view",
      "type": "function"
    },
    {
      "inputs": [
        {
          "internalType": "address",
          "name": "owner",
          "type": "address"
        }
      ],
      "name": "nonces",
      "outputs": [
        {
          "internalType": "uint256",
          "name": "",
          "type": "uint256"
        }
      ],
      "stateMutability": "view",
      "type": "function"
    },
    {
      "inputs": [
        {
          "internalType": "address",
          "name": "",
          "type": "address"
        },
        {
          "internalType": "address",
          "name": "",
          "type": "address"
        },
        {
          "internalType": "uint256[]",
          "name": "",
          "type": "uint256[]"
        },
        {
          "internalType": "uint256[]",
          "name": "",
          "type": "uint256[]"
        },
        {
          "internalType": "bytes",
          "name": "",
          "type": "bytes"
        }
      ],
      "name": "onERC1155BatchReceived",
      "outputs": [
        {
          "internalType": "bytes4",
          "name": "",
          "type": "bytes4"
        }
      ],
      "stateMutability": "nonpayable",
      "type": "function"
    },
    {
      "inputs": [
        {
          "internalType": "address",
          "name": "",
          "type": "address"
        },
        {
          "internalType": "address",
          "name": "",
          "type": "address"
        },
        {
          "internalType": "uint256",
          "name": "",
          "type": "uint256"
        },
        {
          "internalType": "uint256",
          "name": "",
          "type": "uint256"
        },
        {
          "internalType": "bytes",
          "name": "",
          "type": "bytes"
        }
      ],
      "name": "onERC1155Received",
      "outputs": [
        {
          "internalType": "bytes4",
          "name": "",
          "type": "bytes4"
        }
      ],
      "stateMutability": "nonpayable",
      "type": "function"
    },
    {
      "inputs": [
        {
          "internalType": "address",
          "name": "",
          "type": "address"
        },
        {
          "internalType": "address",
          "name": "",
          "type": "address"
        },
        {
          "internalType": "uint256",
          "name": "",
          "type": "uint256"
        },
        {
          "internalType": "bytes",
          "name": "",
          "type": "bytes"
        }
      ],
      "name": "onERC721Received",
      "outputs": [
        {
          "internalType": "bytes4",
          "name": "",
          "type": "bytes4"
        }
      ],
      "stateMutability": "nonpayable",
      "type": "function"
    },
    {
      "inputs": [
        {
          "internalType": "uint256",
          "name": "proposalId",
          "type": "uint256"
        }
      ],
      "name": "proposalDeadline",
      "outputs": [
        {
          "internalType": "uint256",
          "name": "",
          "type": "uint256"
        }
      ],
      "stateMutability": "view",
      "type": "function"
    },
    {
      "inputs": [
        {
          "internalType": "uint256",
          "name": "proposalId",
          "type": "uint256"
        }
      ],
      "name": "proposalEta",
      "outputs": [
        {
          "internalType": "uint256",
          "name": "",
          "type": "uint256"
        }
      ],
      "stateMutability": "view",
      "type": "function"
    },
    {
      "inputs": [
        {
          "internalType": "uint256",
          "name": "",
          "type": "uint256"
        }
      ],
      "name": "proposalNeedsQueuing",
      "outputs": [
        {
          "internalType": "bool",
          "name": "",
          "type": "bool"
        }
      ],
      "stateMutability": "view",
      "type": "function"
    },
    {
      "inputs": [
        {
          "internalType": "uint256",
          "name": "proposalId",
          "type": "uint256"
        }
      ],
      "name": "proposalProposer",
      "outputs": [
        {
          "internalType": "address",
          "name": "",
          "type": "address"
        }
      ],
      "stateMutability": "view",
      "type": "function"
    },
    {
      "inputs": [
        {
          "internalType": "uint256",
          "name": "proposalId",
          "type": "uint256"
        }
      ],
      "name": "proposalSnapshot",
      "outputs": [
        {
          "internalType": "uint256",
          "name": "",
          "type": "uint256"
        }
      ],
      "stateMutability": "view",
      "type": "function"
    },
    {
      "inputs": [],
      "name": "proposalThreshold",
      "outputs": [
        {
          "internalType": "uint256",
          "name": "",
          "type": "uint256"
        }
      ],
      "stateMutability": "pure",
      "type": "function"
    },
    {
      "inputs": [
        {
          "internalType": "uint256",
          "name": "proposalId",
          "type": "uint256"
        }
      ],
      "name": "proposalVotes",
      "outputs": [
        {
          "internalType": "uint256",
          "name": "againstVotes",
          "type": "uint256"
        },
        {
          "internalType": "uint256",
          "name": "forVotes",
          "type": "uint256"
        },
        {
          "internalType": "uint256",
          "name": "abstainVotes",
          "type": "uint256"
        }
      ],
      "stateMutability": "view",
      "type": "function"
    },
    {
      "inputs": [
        {
          "internalType": "address[]",
          "name": "targets",
          "type": "address[]"
        },
        {
          "internalType": "uint256[]",
          "name": "values",
          "type": "uint256[]"
        },
        {
          "internalType": "bytes[]",
          "name": "calldatas",
          "type": "bytes[]"
        },
        {
          "internalType": "string",
          "name": "description",
          "type": "string"
        }
      ],
      "name": "propose",
      "outputs": [
        {
          "internalType": "uint256",
          "name": "",
          "type": "uint256"
        }
      ],
      "stateMutability": "nonpayable",
      "type": "function"
    },
    {
      "inputs": [
        {
          "internalType": "address[]",
          "name": "targets",
          "type": "address[]"
        },
        {
          "internalType": "uint256[]",
          "name": "values",
          "type": "uint256[]"
        },
        {
          "internalType": "bytes[]",
          "name": "calldatas",
          "type": "bytes[]"
        },
        {
          "internalType": "bytes32",
          "name": "descriptionHash",
          "type": "bytes32"
        }
      ],
      "name": "queue",
      "outputs": [
        {
          "internalType": "uint256",
          "name": "",
          "type": "uint256"
        }
      ],
      "stateMutability": "nonpayable",
      "type": "function"
    },
    {
      "inputs": [
        {
          "internalType": "uint256",
          "name": "blockNumber",
          "type": "uint256"
        }
      ],
      "name": "quorum",
      "outputs": [
        {
          "internalType": "uint256",
          "name": "",
          "type": "uint256"
        }
      ],
      "stateMutability": "view",
      "type": "function"
    },
    {
      "inputs": [],
      "name": "quorumDenominator",
      "outputs": [
        {
          "internalType": "uint256",
          "name": "",
          "type": "uint256"
        }
      ],
      "stateMutability": "view",
      "type": "function"
    },
    {
      "inputs": [
        {
          "internalType": "uint256",
          "name": "timepoint",
          "type": "uint256"
        }
      ],
      "name": "quorumNumerator",
      "outputs": [
        {
          "internalType": "uint256",
          "name": "",
          "type": "uint256"
        }
      ],
      "stateMutability": "view",
      "type": "function"
    },
    {
      "inputs": [],
      "name": "quorumNumerator",
      "outputs": [
        {
          "internalType": "uint256",
          "name": "",
          "type": "uint256"
        }
      ],
      "stateMutability": "view",
      "type": "function"
    },
    {
      "inputs": [
        {
          "internalType": "address",
          "name": "target",
          "type": "address"
        },
        {
          "internalType": "uint256",
          "name": "value",
          "type": "uint256"
        },
        {
          "internalType": "bytes",
          "name": "data",
          "type": "bytes"
        }
      ],
      "name": "relay",
      "outputs": [],
      "stateMutability": "payable",
      "type": "function"
    },
    {
      "inputs": [
        {
          "internalType": "uint256",
          "name": "proposalId",
          "type": "uint256"
        }
      ],
      "name": "state",
      "outputs": [
        {
          "internalType": "enum IGovernor.ProposalState",
          "name": "",
          "type": "uint8"
        }
      ],
      "stateMutability": "view",
      "type": "function"
    },
    {
      "inputs": [
        {
          "internalType": "bytes4",
          "name": "interfaceId",
          "type": "bytes4"
        }
      ],
      "name": "supportsInterface",
      "outputs": [
        {
          "internalType": "bool",
          "name": "",
          "type": "bool"
        }
      ],
      "stateMutability": "view",
      "type": "function"
    },
    {
      "inputs": [],
      "name": "token",
      "outputs": [
        {
          "internalType": "contract IERC5805",
          "name": "",
          "type": "address"
        }
      ],
      "stateMutability": "view",
      "type": "function"
    },
    {
      "inputs": [
        {
          "internalType": "uint256",
          "name": "newQuorumNumerator",
          "type": "uint256"
        }
      ],
      "name": "updateQuorumNumerator",
      "outputs": [],
      "stateMutability": "nonpayable",
      "type": "function"
    },
    {
      "inputs": [],
      "name": "version",
      "outputs": [
        {
          "internalType": "string",
          "name": "",
          "type": "string"
        }
      ],
      "stateMutability": "view",
      "type": "function"
    },
    {
      "inputs": [],
      "name": "votingDelay",
      "outputs": [
        {
          "internalType": "uint256",
          "name": "",
          "type": "uint256"
        }
      ],
      "stateMutability": "pure",
      "type": "function"
    },
    {
      "inputs": [],
      "name": "votingPeriod",
      "outputs": [
        {
          "internalType": "uint256",
          "name": "",
          "type": "uint256"
        }
      ],
      "stateMutability": "pure",
      "type": "function"
    },
    {
      "stateMutability": "payable",
      "type": "receive"
    }
  ],
  "bytecode": "0x6101806040523480156200001257600080fd5b5060405162004187380380620041878339810160408190526200003591620005a5565b6004816040518060400160405280600a81526020016926bca3b7bb32b93737b960b11b815250806200006c6200015160201b60201c565b620000798260006200016c565b610120526200008a8160016200016c565b61014052815160208084019190912060e052815190820120610100524660a0526200011860e05161010051604080517f8b73c3c69bb8fe3d512ecc4cf759cc79239f7b179b0ffacaa9a75d522b39400f60208201529081019290925260608201524660808201523060a082015260009060c00160405160208183030381529060405280519060200120905090565b60805250503060c05260036200012f828262000675565b50506001600160a01b0316610160526200014981620001a5565b505062000802565b6040805180820190915260018152603160f81b602082015290565b60006020835110156200018c57620001848362000249565b90506200019f565b8162000199848262000675565b5060ff90505b92915050565b606480821115620001d85760405163243e544560e01b815260048101839052602481018290526044015b60405180910390fd5b6000620001e46200028c565b905062000209620001f4620002a8565b620001ff856200032a565b6008919062000364565b505060408051828152602081018590527f0553476bf02ef2726e8ce5ced78d63e26e602e4a2257b1f559418e24b4633997910160405180910390a1505050565b600080829050601f8151111562000277578260405163305a27a960e01b8152600401620001cf919062000741565b8051620002848262000791565b179392505050565b60006200029a600862000381565b6001600160d01b0316905090565b6000620002b56101605190565b6001600160a01b03166391ddadf46040518163ffffffff1660e01b8152600401602060405180830381865afa92505050801562000311575060408051601f3d908101601f191682019092526200030e91810190620007b6565b60015b620003255762000320620003d1565b905090565b919050565b60006001600160d01b0382111562000360576040516306dfcc6560e41b815260d0600482015260248101839052604401620001cf565b5090565b60008062000374858585620003de565b915091505b935093915050565b80546000908015620003c757620003ad836200039f600184620007e0565b600091825260209091200190565b54660100000000000090046001600160d01b0316620003ca565b60005b9392505050565b6000620003204362000570565b8254600090819080156200051157600062000400876200039f600185620007e0565b60408051808201909152905465ffffffffffff80821680845266010000000000009092046001600160d01b0316602084015291925090871610156200045857604051632520601d60e01b815260040160405180910390fd5b805165ffffffffffff808816911603620004ac57846200047f886200039f600186620007e0565b80546001600160d01b039290921666010000000000000265ffffffffffff90921691909117905562000500565b6040805180820190915265ffffffffffff80881682526001600160d01b0380881660208085019182528b54600181018d5560008d815291909120945191519092166601000000000000029216919091179101555b602001519250839150620003799050565b50506040805180820190915265ffffffffffff80851682526001600160d01b0380851660208085019182528854600181018a5560008a815291822095519251909316660100000000000002919093161792019190915590508162000379565b600065ffffffffffff82111562000360576040516306dfcc6560e41b81526030600482015260248101839052604401620001cf565b600060208284031215620005b857600080fd5b81516001600160a01b0381168114620003ca57600080fd5b634e487b7160e01b600052604160045260246000fd5b600181811c90821680620005fb57607f821691505b6020821081036200061c57634e487b7160e01b600052602260045260246000fd5b50919050565b601f8211156200067057600081815260208120601f850160051c810160208610156200064b5750805b601f850160051c820191505b818110156200066c5782815560010162000657565b5050505b505050565b81516001600160401b03811115620006915762000691620005d0565b620006a981620006a28454620005e6565b8462000622565b602080601f831160018114620006e15760008415620006c85750858301515b600019600386901b1c1916600185901b1785556200066c565b600085815260208120601f198616915b828110156200071257888601518255948401946001909101908401620006f1565b5085821015620007315787850151600019600388901b60f8161c191681555b5050505050600190811b01905550565b600060208083528351808285015260005b81811015620007705785810183015185820160400152820162000752565b506000604082860101526040601f19601f8301168501019250505092915050565b805160208083015191908110156200061c5760001960209190910360031b1b16919050565b600060208284031215620007c957600080fd5b815165ffffffffffff81168114620003ca57600080fd5b818103818111156200019f57634e487b7160e01b600052601160045260246000fd5b60805160a05160c05160e0516101005161012051610140516101605161390362000884600039600081816108f001528181610d520152818161125801528181611d7a0152611e8c01526000611d4501526000611d18015260006120b20152600061208a01526000611fe50152600061200f0152600061203901526139036000f3fe6080604052600436106102605760003560e01c80637b3c71d311610144578063b58131b0116100b6578063dd4e2ba51161007a578063dd4e2ba5146107fb578063deaaa7cc14610841578063eb9019d414610875578063f23a6e6114610895578063f8ce560a146108c1578063fc0c546a146108e157600080fd5b8063b58131b014610768578063bc197c811461077c578063c01f9e37146107a8578063c28bc2fa146107c8578063c59057e4146107db57600080fd5b806391ddadf41161010857806391ddadf41461069a57806397c3d334146106c65780639a802a6d146106da578063a7713a70146106fa578063a9a952941461070f578063ab58fb8e1461073057600080fd5b80637b3c71d3146105dc5780637d5e81e2146105fc5780637ecebe001461061c57806384b0196e146106525780638ff262e31461067a57600080fd5b80633932abb1116101dd578063544ffc9c116101a1578063544ffc9c146104dd57806354fd4d5014610532578063567813881461055c5780635b8d0e0d1461057c5780635f398a141461059c57806360c4247f146105bc57600080fd5b80633932abb11461041d5780633e4f49e614610431578063438596321461045e578063452115d6146104a85780634bf5d7e9146104c857600080fd5b8063150b7a0211610224578063150b7a0214610352578063160cbed7146103965780632656227d146103b65780632d63f693146103c95780632fe3e261146103e957600080fd5b806301ffc9a71461026e57806302a251a3146102a357806306f3f9e6146102c257806306fdde03146102e2578063143489d01461030457600080fd5b3661026957005b005b600080fd5b34801561027a57600080fd5b5061028e61028936600461297a565b610914565b60405190151581526020015b60405180910390f35b3480156102af57600080fd5b5061b2fa5b60405190815260200161029a565b3480156102ce57600080fd5b506102676102dd3660046129a4565b610966565b3480156102ee57600080fd5b506102f761097a565b60405161029a9190612a0d565b34801561031057600080fd5b5061033a61031f3660046129a4565b6000908152600460205260409020546001600160a01b031690565b6040516001600160a01b03909116815260200161029a565b34801561035e57600080fd5b5061037d61036d366004612b02565b630a85bd0160e11b949350505050565b6040516001600160e01b0319909116815260200161029a565b3480156103a257600080fd5b506102b46103b1366004612cd3565b610a0c565b6102b46103c4366004612cd3565b610a4c565b3480156103d557600080fd5b506102b46103e43660046129a4565b610b7f565b3480156103f557600080fd5b506102b47f3e83946653575f9a39005e1545185629e92736b7528ab20ca3816f315424a81181565b34801561042957600080fd5b5060016102b4565b34801561043d57600080fd5b5061045161044c3660046129a4565b610ba0565b60405161029a9190612d9a565b34801561046a57600080fd5b5061028e610479366004612da8565b60008281526007602090815260408083206001600160a01b038516845260030190915290205460ff1692915050565b3480156104b457600080fd5b506102b46104c3366004612cd3565b610cdf565b3480156104d457600080fd5b506102f7610d4e565b3480156104e957600080fd5b506105176104f83660046129a4565b6000908152600760205260409020805460018201546002909201549092565b6040805193845260208401929092529082015260600161029a565b34801561053e57600080fd5b506040805180820190915260018152603160f81b60208201526102f7565b34801561056857600080fd5b506102b4610577366004612de5565b610e10565b34801561058857600080fd5b506102b4610597366004612e50565b610e39565b3480156105a857600080fd5b506102b46105b7366004612f08565b610f98565b3480156105c857600080fd5b506102b46105d73660046129a4565b610fed565b3480156105e857600080fd5b506102b46105f7366004612f8b565b61107b565b34801561060857600080fd5b506102b4610617366004612fe4565b6110c3565b34801561062857600080fd5b506102b4610637366004613098565b6001600160a01b031660009081526002602052604090205490565b34801561065e57600080fd5b5061066761113c565b60405161029a97969594939291906130ee565b34801561068657600080fd5b506102b461069536600461315e565b611182565b3480156106a657600080fd5b506106af611254565b60405165ffffffffffff909116815260200161029a565b3480156106d257600080fd5b5060646102b4565b3480156106e657600080fd5b506102b46106f53660046131ad565b6112e1565b34801561070657600080fd5b506102b46112ee565b34801561071b57600080fd5b5061028e61072a3660046129a4565b50600090565b34801561073c57600080fd5b506102b461074b3660046129a4565b60009081526004602052604090206001015465ffffffffffff1690565b34801561077457600080fd5b5060006102b4565b34801561078857600080fd5b5061037d610797366004613203565b63bc197c8160e01b95945050505050565b3480156107b457600080fd5b506102b46107c33660046129a4565b611308565b6102676107d6366004613292565b61134b565b3480156107e757600080fd5b506102b46107f6366004612cd3565b6113cb565b34801561080757600080fd5b506040805180820190915260208082527f737570706f72743d627261766f2671756f72756d3d666f722c6162737461696e908201526102f7565b34801561084d57600080fd5b506102b47ff2aad550cf55f045cb27e9c559f9889fdfb6e6cdaa032301d6ea397784ae51d781565b34801561088157600080fd5b506102b46108903660046132d3565b611405565b3480156108a157600080fd5b5061037d6108b03660046132fd565b63f23a6e6160e01b95945050505050565b3480156108cd57600080fd5b506102b46108dc3660046129a4565b61142d565b3480156108ed57600080fd5b507f000000000000000000000000000000000000000000000000000000000000000061033a565b60006001600160e01b031982166332a2ad4360e11b148061094557506001600160e01b03198216630271189760e51b145b8061096057506301ffc9a760e01b6001600160e01b03198316145b92915050565b61096e611438565b6109778161146f565b50565b60606003805461098990613361565b80601f01602080910402602001604051908101604052809291908181526020018280546109b590613361565b8015610a025780601f106109d757610100808354040283529160200191610a02565b820191906000526020600020905b8154815290600101906020018083116109e557829003601f168201915b5050505050905090565b600080610a1b868686866113cb565b9050610a3081610a2b6004611505565b611528565b506000604051634844252360e11b815260040160405180910390fd5b600080610a5b868686866113cb565b9050610a7b81610a6b6005611505565b610a756004611505565b17611528565b506000818152600460205260409020805460ff60f01b1916600160f01b17905530610aa33090565b6001600160a01b031614610b355760005b8651811015610b3357306001600160a01b0316878281518110610ad957610ad961339b565b60200260200101516001600160a01b031603610b2357610b23858281518110610b0457610b0461339b565b602002602001015180519060200120600561156790919063ffffffff16565b610b2c816133c7565b9050610ab4565b505b610b4281878787876115d8565b6040518181527f712ae1383f79ac853f8d882153778e0260ef8f03b504e2866e0593e04d2b291f906020015b60405180910390a195945050505050565b600090815260046020526040902054600160a01b900465ffffffffffff1690565b6000818152600460205260408120805460ff600160f01b8204811691600160f81b9004168115610bd557506007949350505050565b8015610be657506002949350505050565b6000610bf186610b7f565b905080600003610c1c57604051636ad0607560e01b8152600481018790526024015b60405180910390fd5b6000610c26611254565b65ffffffffffff169050808210610c44575060009695505050505050565b6000610c4f88611308565b9050818110610c6657506001979650505050505050565b610c6f886116b8565b1580610c8f57506000888152600760205260409020805460019091015411155b15610ca257506003979650505050505050565b60008881526004602052604090206001015465ffffffffffff16600003610cd157506004979650505050505050565b506005979650505050505050565b600080610cee868686866113cb565b9050610cfe81610a2b6000611505565b506000818152600460205260409020546001600160a01b03163314610d385760405163233d98e360e01b8152336004820152602401610c13565b610d44868686866116ef565b9695505050505050565b60607f00000000000000000000000000000000000000000000000000000000000000006001600160a01b0316634bf5d7e96040518163ffffffff1660e01b8152600401600060405180830381865afa925050508015610dcf57506040513d6000823e601f3d908101601f19168201604052610dcc91908101906133e0565b60015b610e0b575060408051808201909152601d81527f6d6f64653d626c6f636b6e756d6265722666726f6d3d64656661756c74000000602082015290565b919050565b600080339050610e31848285604051806020016040528060008152506117a0565b949350505050565b600080610f1c87610f167f3e83946653575f9a39005e1545185629e92736b7528ab20ca3816f315424a8118c8c8c610e8e8e6001600160a01b0316600090815260026020526040902080546001810190915590565b8d8d604051610e9e92919061344d565b60405180910390208c80519060200120604051602001610efb9796959493929190968752602087019590955260ff9390931660408601526001600160a01b03919091166060850152608084015260a083015260c082015260e00190565b604051602081830303815290604052805190602001206117cc565b856117f9565b905080610f47576040516394ab6c0760e01b81526001600160a01b0388166004820152602401610c13565b610f8b89888a89898080601f0160208091040260200160405190810160405280939291908181526020018383808284376000920191909152508b9250611851915050565b9998505050505050505050565b600080339050610fe287828888888080601f0160208091040260200160405190810160405280939291908181526020018383808284376000920191909152508a9250611851915050565b979650505050505050565b60088054600091829061100160018461345d565b815481106110115761101161339b565b6000918252602090912001805490915065ffffffffffff811690600160301b90046001600160d01b0316858211611054576001600160d01b031695945050505050565b6110686110608761192e565b600890611965565b6001600160d01b03169695505050505050565b600080339050610d4486828787878080601f0160208091040260200160405190810160405280939291908181526020018383808284376000920191909152506117a092505050565b6000336110d08184611a1a565b6110f85760405163d9b3955760e01b81526001600160a01b0382166004820152602401610c13565b600061111f826001611108611254565b6111129190613470565b65ffffffffffff16611405565b905060006111308888888887611b0b565b98975050505050505050565b600060608060008060006060611150611d11565b611158611d3e565b60408051600080825260208201909252600f60f81b9b939a50919850469750309650945092509050565b60008061120e84610f167ff2aad550cf55f045cb27e9c559f9889fdfb6e6cdaa032301d6ea397784ae51d78989896111d78b6001600160a01b0316600090815260026020526040902080546001810190915590565b60408051602081019690965285019390935260ff90911660608401526001600160a01b0316608083015260a082015260c001610efb565b905080611239576040516394ab6c0760e01b81526001600160a01b0385166004820152602401610c13565b610d44868587604051806020016040528060008152506117a0565b60007f00000000000000000000000000000000000000000000000000000000000000006001600160a01b03166391ddadf46040518163ffffffff1660e01b8152600401602060405180830381865afa9250505080156112d0575060408051601f3d908101601f191682019092526112cd91810190613496565b60015b610e0b576112dc611d6b565b905090565b6000610e31848484611d76565b60006112fa6008611e0c565b6001600160d01b0316905090565b60008181526004602052604081205461133d90600160d01b810463ffffffff1690600160a01b900465ffffffffffff166134be565b65ffffffffffff1692915050565b611353611438565b600080856001600160a01b031685858560405161137192919061344d565b60006040518083038185875af1925050503d80600081146113ae576040519150601f19603f3d011682016040523d82523d6000602084013e6113b3565b606091505b50915091506113c28282611e45565b50505050505050565b6000848484846040516020016113e4949392919061356b565b60408051601f19818403018152919052805160209091012095945050505050565b6000611426838361142160408051602081019091526000815290565b611d76565b9392505050565b600061096082611e61565b30331461145a576040516347096e4760e01b8152336004820152602401610c13565b565b806114676005611f0b565b0361145c5750565b60648082111561149c5760405163243e544560e01b81526004810183905260248101829052604401610c13565b60006114a66112ee565b90506114c56114b3611254565b6114bc85611f89565b60089190611fbd565b505060408051828152602081018590527f0553476bf02ef2726e8ce5ced78d63e26e602e4a2257b1f559418e24b4633997910160405180910390a1505050565b600081600781111561151957611519612d62565b600160ff919091161b92915050565b60008061153484610ba0565b905060008361154283611505565b1603611426578381846040516331b75e4d60e01b8152600401610c13939291906135b6565b81546001600160801b03600160801b8204811691811660018301909116036115a257604051638acb5f2760e01b815260040160405180910390fd5b6001600160801b03808216600090815260018086016020526040909120939093558354919092018216600160801b029116179055565b60005b84518110156116b0576000808683815181106115f9576115f961339b565b60200260200101516001600160a01b031686848151811061161c5761161c61339b565b60200260200101518685815181106116365761163661339b565b602002602001015160405161164b91906135d8565b60006040518083038185875af1925050503d8060008114611688576040519150601f19603f3d011682016040523d82523d6000602084013e61168d565b606091505b509150915061169c8282611e45565b505050806116a9906133c7565b90506115db565b505050505050565b6000818152600760205260408120600281015460018201546116da91906135f4565b6116e66108dc85610b7f565b11159392505050565b6000806116fe868686866113cb565b905061174c8161170e6007611505565b6117186006611505565b6117226002611505565b600161172f600782613607565b61173a906002613704565b611744919061345d565b181818611528565b506000818152600460205260409081902080546001600160f81b0316600160f81b179055517f789cf55be980739dad1d0699b93b58e806b51c9d96619bfa8fe0a28abaa7b30c90610b6e9083815260200190565b60006117c3858585856117be60408051602081019091526000815290565b611851565b95945050505050565b60006109606117d9611fd8565b8360405161190160f01b8152600281019290925260228201526042902090565b60008060006118088585612103565b509092509050600081600381111561182257611822612d62565b1480156118405750856001600160a01b0316826001600160a01b0316145b80610d445750610d44868686612150565b600061186186610a2b6001611505565b5060006118778661187189610b7f565b85611d76565b9050611886878787848761222b565b82516000036118db57856001600160a01b03167fb8e138887d0aa13bab447e82de9d5c1777041ecd21ca36ba824ff1e6c07ddda4888784886040516118ce9493929190613713565b60405180910390a2610d44565b856001600160a01b03167fe2babfbac5889a709b63bb7f598b324e08bc5a4fb9ec647fb3cbc9ec07eb8712888784888860405161191c95949392919061373b565b60405180910390a29695505050505050565b600065ffffffffffff821115611961576040516306dfcc6560e41b81526030600482015260248101839052604401610c13565b5090565b8154600090818160058111156119c457600061198084612324565b61198a908561345d565b60008881526020902090915081015465ffffffffffff90811690871610156119b4578091506119c2565b6119bf8160016135f4565b92505b505b60006119d28787858561240c565b90508015611a0d576119f7876119e960018461345d565b600091825260209091200190565b54600160301b90046001600160d01b0316610fe2565b6000979650505050505050565b80516000906034811015611a32576001915050610960565b82810160131901516001600160a01b031981166b046e0e4dee0dee6cae47a60f60a31b14611a6557600192505050610960565b600080611a7360288561345d565b90505b83811015611aea57600080611aaa888481518110611a9657611a9661339b565b01602001516001600160f81b03191661246e565b9150915081611ac25760019650505050505050610960565b8060ff166004856001600160a01b0316901b179350505080611ae3906133c7565b9050611a76565b50856001600160a01b0316816001600160a01b031614935050505092915050565b6000611b2086868686805190602001206113cb565b905084518651141580611b3557508351865114155b80611b3f57508551155b15611b7457855184518651604051630447b05d60e41b8152600481019390935260248301919091526044820152606401610c13565b600081815260046020526040902054600160a01b900465ffffffffffff1615611bbf5780611ba182610ba0565b6040516331b75e4d60e01b8152610c139291906000906004016135b6565b60006001611bcb611254565b65ffffffffffff16611bdd91906135f4565b9050600061b2fa600084815260046020526040902080546001600160a01b0319166001600160a01b038716178155909150611c178361192e565b815465ffffffffffff91909116600160a01b0265ffffffffffff60a01b19909116178155611c4482612500565b815463ffffffff91909116600160d01b0263ffffffff60d01b1990911617815588517f7d84a6263ae0d98d3329bd7b46bb4e8d6f98cd35a7adb45c274c8b7fd5ebd5e090859087908c908c906001600160401b03811115611ca757611ca7612a37565b604051908082528060200260200182016040528015611cda57816020015b6060815260200190600190039081611cc55790505b508c89611ce78a826135f4565b8e604051611cfd99989796959493929190613775565b60405180910390a150505095945050505050565b60606112dc7f00000000000000000000000000000000000000000000000000000000000000006000612531565b60606112dc7f00000000000000000000000000000000000000000000000000000000000000006001612531565b60006112dc4361192e565b60007f0000000000000000000000000000000000000000000000000000000000000000604051630748d63560e31b81526001600160a01b038681166004830152602482018690529190911690633a46b1a890604401602060405180830381865afa158015611de8573d6000803e3d6000fd5b505050506040513d601f19601f82011682018060405250810190610e31919061384c565b80546000908015611e3c57611e26836119e960018461345d565b54600160301b90046001600160d01b0316611426565b60009392505050565b606082611e5a57611e55826125dc565b610960565b5080610960565b60006064611e6e83610fed565b604051632394e7a360e21b8152600481018590526001600160a01b037f00000000000000000000000000000000000000000000000000000000000000001690638e539e8c90602401602060405180830381865afa158015611ed3573d6000803e3d6000fd5b505050506040513d601f19601f82011682018060405250810190611ef7919061384c565b611f019190613865565b6109609190613892565b80546000906001600160801b0380821691600160801b9004168103611f43576040516375e52f4f60e01b815260040160405180910390fd5b6001600160801b038181166000908152600185810160205260408220805492905585546fffffffffffffffffffffffffffffffff19169301909116919091179092555090565b60006001600160d01b03821115611961576040516306dfcc6560e41b815260d0600482015260248101839052604401610c13565b600080611fcb858585612605565b915091505b935093915050565b6000306001600160a01b037f00000000000000000000000000000000000000000000000000000000000000001614801561203157507f000000000000000000000000000000000000000000000000000000000000000046145b1561205b57507f000000000000000000000000000000000000000000000000000000000000000090565b6112dc604080517f8b73c3c69bb8fe3d512ecc4cf759cc79239f7b179b0ffacaa9a75d522b39400f60208201527f0000000000000000000000000000000000000000000000000000000000000000918101919091527f000000000000000000000000000000000000000000000000000000000000000060608201524660808201523060a082015260009060c00160405160208183030381529060405280519060200120905090565b6000806000835160410361213d5760208401516040850151606086015160001a61212f8882858561277f565b955095509550505050612149565b50508151600091506002905b9250925092565b6000806000856001600160a01b031685856040516024016121729291906138b4565b60408051601f198184030181529181526020820180516001600160e01b0316630b135d3f60e11b179052516121a791906135d8565b600060405180830381855afa9150503d80600081146121e2576040519150601f19603f3d011682016040523d82523d6000602084013e6121e7565b606091505b50915091508180156121fb57506020815110155b8015610d4457508051630b135d3f60e11b90612220908301602090810190840161384c565b149695505050505050565b60008581526007602090815260408083206001600160a01b0388168452600381019092529091205460ff161561227f576040516371c6af4960e01b81526001600160a01b0386166004820152602401610c13565b6001600160a01b03851660009081526003820160205260409020805460ff1916600117905560ff84166122cb57828160000160008282546122c091906135f4565b909155506116b09050565b60001960ff8516016122eb57828160010160008282546122c091906135f4565b60011960ff85160161230b57828160020160008282546122c091906135f4565b6040516303599be160e11b815260040160405180910390fd5b60008160000361233657506000919050565b600060016123438461284e565b901c6001901b9050600181848161235c5761235c61387c565b048201901c905060018184816123745761237461387c565b048201901c9050600181848161238c5761238c61387c565b048201901c905060018184816123a4576123a461387c565b048201901c905060018184816123bc576123bc61387c565b048201901c905060018184816123d4576123d461387c565b048201901c905060018184816123ec576123ec61387c565b048201901c9050611426818285816124065761240661387c565b046128e2565b60005b8183101561246657600061242384846128f8565b60008781526020902090915065ffffffffffff86169082015465ffffffffffff16111561245257809250612460565b61245d8160016135f4565b93505b5061240f565b509392505050565b60008060f883901c602f811180156124895750603a8160ff16105b1561249e57600194602f199091019350915050565b8060ff1660401080156124b4575060478160ff16105b156124c9576001946036199091019350915050565b8060ff1660601080156124df575060678160ff16105b156124f4576001946056199091019350915050565b50600093849350915050565b600063ffffffff821115611961576040516306dfcc6560e41b81526020600482015260248101839052604401610c13565b606060ff831461254b5761254483612913565b9050610960565b81805461255790613361565b80601f016020809104026020016040519081016040528092919081815260200182805461258390613361565b80156125d05780601f106125a5576101008083540402835291602001916125d0565b820191906000526020600020905b8154815290600101906020018083116125b357829003601f168201915b50505050509050610960565b8051156125ec5780518082602001fd5b604051630a12f52160e11b815260040160405180910390fd5b825460009081908015612724576000612623876119e960018561345d565b60408051808201909152905465ffffffffffff808216808452600160301b9092046001600160d01b03166020840152919250908716101561267757604051632520601d60e01b815260040160405180910390fd5b805165ffffffffffff8088169116036126c3578461269a886119e960018661345d565b80546001600160d01b0392909216600160301b0265ffffffffffff909216919091179055612714565b6040805180820190915265ffffffffffff80881682526001600160d01b0380881660208085019182528b54600181018d5560008d81529190912094519151909216600160301b029216919091179101555b602001519250839150611fd09050565b50506040805180820190915265ffffffffffff80851682526001600160d01b0380851660208085019182528854600181018a5560008a815291822095519251909316600160301b029190931617920191909155905081611fd0565b600080807f7fffffffffffffffffffffffffffffff5d576e7357a4501ddfe92f46681b20a08411156127ba5750600091506003905082612844565b604080516000808252602082018084528a905260ff891692820192909252606081018790526080810186905260019060a0016020604051602081039080840390855afa15801561280e573d6000803e3d6000fd5b5050604051601f1901519150506001600160a01b03811661283a57506000925060019150829050612844565b9250600091508190505b9450945094915050565b600080608083901c1561286357608092831c92015b604083901c1561287557604092831c92015b602083901c1561288757602092831c92015b601083901c1561289957601092831c92015b600883901c156128ab57600892831c92015b600483901c156128bd57600492831c92015b600283901c156128cf57600292831c92015b600183901c156109605760010192915050565b60008183106128f15781611426565b5090919050565b60006129076002848418613892565b611426908484166135f4565b6060600061292083612952565b604080516020808252818301909252919250600091906020820181803683375050509182525060208101929092525090565b600060ff8216601f81111561096057604051632cd44ac360e21b815260040160405180910390fd5b60006020828403121561298c57600080fd5b81356001600160e01b03198116811461142657600080fd5b6000602082840312156129b657600080fd5b5035919050565b60005b838110156129d85781810151838201526020016129c0565b50506000910152565b600081518084526129f98160208601602086016129bd565b601f01601f19169290920160200192915050565b60208152600061142660208301846129e1565b80356001600160a01b0381168114610e0b57600080fd5b634e487b7160e01b600052604160045260246000fd5b604051601f8201601f191681016001600160401b0381118282101715612a7557612a75612a37565b604052919050565b60006001600160401b03821115612a9657612a96612a37565b50601f01601f191660200190565b6000612ab7612ab284612a7d565b612a4d565b9050828152838383011115612acb57600080fd5b828260208301376000602084830101529392505050565b600082601f830112612af357600080fd5b61142683833560208501612aa4565b60008060008060808587031215612b1857600080fd5b612b2185612a20565b9350612b2f60208601612a20565b92506040850135915060608501356001600160401b03811115612b5157600080fd5b612b5d87828801612ae2565b91505092959194509250565b60006001600160401b03821115612b8257612b82612a37565b5060051b60200190565b600082601f830112612b9d57600080fd5b81356020612bad612ab283612b69565b82815260059290921b84018101918181019086841115612bcc57600080fd5b8286015b84811015612bee57612be181612a20565b8352918301918301612bd0565b509695505050505050565b600082601f830112612c0a57600080fd5b81356020612c1a612ab283612b69565b82815260059290921b84018101918181019086841115612c3957600080fd5b8286015b84811015612bee5780358352918301918301612c3d565b600082601f830112612c6557600080fd5b81356020612c75612ab283612b69565b82815260059290921b84018101918181019086841115612c9457600080fd5b8286015b84811015612bee5780356001600160401b03811115612cb75760008081fd5b612cc58986838b0101612ae2565b845250918301918301612c98565b60008060008060808587031215612ce957600080fd5b84356001600160401b0380821115612d0057600080fd5b612d0c88838901612b8c565b95506020870135915080821115612d2257600080fd5b612d2e88838901612bf9565b94506040870135915080821115612d4457600080fd5b50612d5187828801612c54565b949793965093946060013593505050565b634e487b7160e01b600052602160045260246000fd5b60088110612d9657634e487b7160e01b600052602160045260246000fd5b9052565b602081016109608284612d78565b60008060408385031215612dbb57600080fd5b82359150612dcb60208401612a20565b90509250929050565b803560ff81168114610e0b57600080fd5b60008060408385031215612df857600080fd5b82359150612dcb60208401612dd4565b60008083601f840112612e1a57600080fd5b5081356001600160401b03811115612e3157600080fd5b602083019150836020828501011115612e4957600080fd5b9250929050565b600080600080600080600060c0888a031215612e6b57600080fd5b87359650612e7b60208901612dd4565b9550612e8960408901612a20565b945060608801356001600160401b0380821115612ea557600080fd5b612eb18b838c01612e08565b909650945060808a0135915080821115612eca57600080fd5b612ed68b838c01612ae2565b935060a08a0135915080821115612eec57600080fd5b50612ef98a828b01612ae2565b91505092959891949750929550565b600080600080600060808688031215612f2057600080fd5b85359450612f3060208701612dd4565b935060408601356001600160401b0380821115612f4c57600080fd5b612f5889838a01612e08565b90955093506060880135915080821115612f7157600080fd5b50612f7e88828901612ae2565b9150509295509295909350565b60008060008060608587031215612fa157600080fd5b84359350612fb160208601612dd4565b925060408501356001600160401b03811115612fcc57600080fd5b612fd887828801612e08565b95989497509550505050565b60008060008060808587031215612ffa57600080fd5b84356001600160401b038082111561301157600080fd5b61301d88838901612b8c565b9550602087013591508082111561303357600080fd5b61303f88838901612bf9565b9450604087013591508082111561305557600080fd5b61306188838901612c54565b9350606087013591508082111561307757600080fd5b508501601f8101871361308957600080fd5b612b5d87823560208401612aa4565b6000602082840312156130aa57600080fd5b61142682612a20565b600081518084526020808501945080840160005b838110156130e3578151875295820195908201906001016130c7565b509495945050505050565b60ff60f81b8816815260e06020820152600061310d60e08301896129e1565b828103604084015261311f81896129e1565b606084018890526001600160a01b038716608085015260a0840186905283810360c0850152905061315081856130b3565b9a9950505050505050505050565b6000806000806080858703121561317457600080fd5b8435935061318460208601612dd4565b925061319260408601612a20565b915060608501356001600160401b03811115612b5157600080fd5b6000806000606084860312156131c257600080fd5b6131cb84612a20565b92506020840135915060408401356001600160401b038111156131ed57600080fd5b6131f986828701612ae2565b9150509250925092565b600080600080600060a0868803121561321b57600080fd5b61322486612a20565b945061323260208701612a20565b935060408601356001600160401b038082111561324e57600080fd5b61325a89838a01612bf9565b9450606088013591508082111561327057600080fd5b61327c89838a01612bf9565b93506080880135915080821115612f7157600080fd5b600080600080606085870312156132a857600080fd5b6132b185612a20565b93506020850135925060408501356001600160401b03811115612fcc57600080fd5b600080604083850312156132e657600080fd5b6132ef83612a20565b946020939093013593505050565b600080600080600060a0868803121561331557600080fd5b61331e86612a20565b945061332c60208701612a20565b9350604086013592506060860135915060808601356001600160401b0381111561335557600080fd5b612f7e88828901612ae2565b600181811c9082168061337557607f821691505b60208210810361339557634e487b7160e01b600052602260045260246000fd5b50919050565b634e487b7160e01b600052603260045260246000fd5b634e487b7160e01b600052601160045260246000fd5b6000600182016133d9576133d96133b1565b5060010190565b6000602082840312156133f257600080fd5b81516001600160401b0381111561340857600080fd5b8201601f8101841361341957600080fd5b8051613427612ab282612a7d565b81815285602083850101111561343c57600080fd5b6117c38260208301602086016129bd565b8183823760009101908152919050565b81810381811115610960576109606133b1565b65ffffffffffff82811682821603908082111561348f5761348f6133b1565b5092915050565b6000602082840312156134a857600080fd5b815165ffffffffffff8116811461142657600080fd5b65ffffffffffff81811683821601908082111561348f5761348f6133b1565b600081518084526020808501945080840160005b838110156130e35781516001600160a01b0316875295820195908201906001016134f1565b600081518084526020808501808196508360051b8101915082860160005b8581101561355e57828403895261354c8483516129e1565b98850198935090840190600101613534565b5091979650505050505050565b60808152600061357e60808301876134dd565b828103602084015261359081876130b3565b905082810360408401526135a48186613516565b91505082606083015295945050505050565b838152606081016135ca6020830185612d78565b826040830152949350505050565b600082516135ea8184602087016129bd565b9190910192915050565b80820180821115610960576109606133b1565b60ff8181168382160190811115610960576109606133b1565b600181815b8085111561365b578160001904821115613641576136416133b1565b8085161561364e57918102915b93841c9390800290613625565b509250929050565b60008261367257506001610960565b8161367f57506000610960565b8160018114613695576002811461369f576136bb565b6001915050610960565b60ff8411156136b0576136b06133b1565b50506001821b610960565b5060208310610133831016604e8410600b84101617156136de575081810a610960565b6136e88383613620565b80600019048211156136fc576136fc6133b1565b029392505050565b600061142660ff841683613663565b84815260ff84166020820152826040820152608060608201526000610d4460808301846129e1565b85815260ff8516602082015283604082015260a06060820152600061376360a08301856129e1565b828103608084015261113081856129e1565b60006101208b8352602060018060a01b038c168185015281604085015261379e8285018c6134dd565b915083820360608501526137b2828b6130b3565b915083820360808501528189518084528284019150828160051b850101838c0160005b8381101561380357601f198784030185526137f18383516129e1565b948601949250908501906001016137d5565b505086810360a0880152613817818c613516565b9450505050508560c08401528460e084015282810361010084015261383c81856129e1565b9c9b505050505050505050505050565b60006020828403121561385e57600080fd5b5051919050565b8082028115828204841417610960576109606133b1565b634e487b7160e01b600052601260045260246000fd5b6000826138af57634e487b7160e01b600052601260045260246000fd5b500490565b828152604060208201526000610e3160408301846129e156fea2646970667358221220fd68acdcd5db22527df87eff6f26b9aba3d08264208d576d9174a827383f86c964736f6c63430008140033",
  "linkReferences": {},
  "deployedLinkReferences": {}
}